:020000040800F2
:10000000E80B0020A92F0008B92E0008BB2E00081D
:10001000BD2E0008BF2E0008C12E00080000000001
:10002000000000000000000000000000C32E0008D7
:10003000C52E000800000000C72E0008C92E0008C9
:10004000DD2F0008E12F0008E52F0008E92F000848
:10005000ED2F0008F12F0008F52F0008F92F0008F8
:10006000FD2F0008013000080530000809300008A5
:100070000D30000811300008153000081930000854
:100080001D30000821300008253000082930000804
:100090002D300008313000083530000839300008B4
:1000A0003D30000841300008453000084930000864
:1000B0004D30000851300008553000085930000814
:1000C0005D3000086130000865300008CD2E000862
:1000D000693000086D300008713000087530000884
:1000E000793000087D300008813000088530000834
:1000F000893000088D3000089130000895300008E4
:10010000993000089D300008A1300008A530000893
:10011000A9300008AD300008B1300008B530000843
:10012000B9300008BD300008C1300008CF2E0008EB
:10013000C5300008C9300008CD300008D1300008B3
:10014000D5300008D9300008DD300008D12E000875
:10015000E1300008E5300008E9300008DD2E000835
:10016000ED300008F1300008F5300008F9300008E3
:10017000FD300008013100080531000800000000D2
:10018000093100080D310008FEB5064696F8B802A0
:10019000012801D10220FEBD0A98099C089D012773
:1001A00086F8B8728E46282717FB0EFE06EB0E0760
:1001B00038374FF0000C87F805C012F0800E02F0BF
:1001C0007F0C87F802C03B70F44618BF4FF0010C5B
:1001D00038817970FC7187F803C03D7102900194F9
:1001E0000095306800F0EEFB002186F8B812FEBDE5
:1001F000F8B50E46282466430644069D06F13907E5
:10020000002DBA70BB7107BF03247C7202247C727C
:10021000089C032B06F1440E13D8DFE803F002100C
:100220000C0C012D08BF002A0BD1220004D10122A1
:100230008EF80D2000E0D2B99EF80D20DAB9002327
:100240007B72079ACEF80020CEF8044000228EF888
:100250001820CEF8082039708EF8192006F13801E0
:1002600002690068BDE8F840D2B200F017BC9EF801
:100270000C20002AE3D00223E2E72DE9FE4F0546D9
:100280002C68204600F03AFB012840F08E8200F0F6
:10029000A3FA002800F0898200F09EFA800203D5BC
:1002A0002A684FF40011516100F096FAC00203D59C
:1002B0002A684FF48011516100F08EFA400103D595
:1002C0002A684FF08061516100F086FA800702D5FC
:1002D0002A680221516100F07FFA800010D504F5F0
:1002E0008860016821F02E010160284600F014FDAD
:1002F0002868012100F006FB29684FF00050486192
:1003000000F06AFAC00159D529680F4607F58866DA
:100310003268019233680093009820F02E0000901C
:10032000019882070DD50198C20706D5886920F08B
:1003300000508861284600F0EBFC009840F0020075
:1003400000900198010730D5009840F00800009017
:10035000019841071DD5A86902280BD12868019989
:1003600001F4C021B1F5802F0CBF0221012100F062
:10037000C9FA07E0E868012804D107F580604EF665
:1003800060214160284600F0CCFC284600F0C0FC0B
:100390000BE0284600F0C9FC306820F02E003060E9
:1003A0002868816941F0005181610198810603D577
:1003B000009840F0200000900098306000F00CFAA7
:1003C000000705D5284600F09FFC296808204861F1
:1003D00000F002FA800140F1A881286800F0F6FBE5
:1003E0000194002600904FF4806810E00222027011
:1003F00006E003703A6822F0804242F000423A6020
:100400000222BA600278284600F08AFC761CA868AE
:10041000864280F08681009906F00F00C140CA072D
:10042000F4D501982F6800EB461000F5A060F1B2FA
:10043000026810044FF4007B40F1D380894607EB3B
:10044000491707F5A0672821B86811FB09F105EBEA
:10045000010A41070AF15C0402D500F0ABF921E082
:10046000B868810602D52020B8601BE0B868010793
:100470000BD500F0A6F9052161701020B8600821A5
:10048000B960494600F0AFF90CE0B868410509D5FC
:1004900000F09CF900F0A7F91020B8600821617005
:1004A000C7F80880B868810506D500F08FF900F01C
:1004B0009AF9C7F808B0A9E7B868C10730D5286924
:1004C00038B1DAF848003969C1F31201401ACAF8A4
:1004D0004C00012060700021CAF85810B8609AF8EA
:1004E0003F00002818BF02280DD0032811D138681A
:1004F00040F0005038600121217001224946284611
:1005000000F00EFC05E000F061F900F06CF910203D
:10051000B8609AF8500080F001008AF8500075E742
:10052000B86881072AD5F86820F00200F860607882
:10053000012814BF052820701BD0062818BF0828E2
:1005400002D0032815D10CE0DAF85800401C04282A
:10055000CAF8580005D30020CAF8580004212170B9
:1005600001E002202070396821F0804141F0004113
:1005700039600220B8604946227844E7B86801062D
:100580000ED500F01EF90621DAF85800401CCAF812
:1005900058006170494600F026F98020B86035E7C0
:1005A000B868C106FBD59AF83F00032807D10020A0
:1005B000CAF85800F96841F00201F9600CE000281F
:1005C00018BF02280BD10021CAF85810286930B989
:1005D0000321617000F0F5F8494600F004F910209D
:1005E000DCE707EB411707F5A067B868420702D5BB
:1005F00000F0E0F80AE72820BA6810FB01F02C1898
:10060000920604F13C0304F15C000BD52022BA6091
:100610005A78012A05D100225A700223037000F093
:10062000DEF8F3E6BA68520608D5042084F85D00C7
:1006300001225A7000F0DAF84020AFE7BA6892055C
:1006400002D500F0BEF832E7BA68D20706D500F04E
:10065000CDF80120B86084F85D00D7E6BA681207CB
:1006600009D50820B860FA6842F00202FA6000F08A
:10067000BAF80520EFE7BA68D2060ED50020D86197
:10068000032084F85D005A78002A01BF18780028FA
:1006900001225A7000F0A3F8A1E7BA68120607D544
:1006A00000F09DF8062084F85D008021B960ADE679
:1006B000BA68520509D500F092F81020B860C7F862
:1006C0000880082184F85D10A0E6BA689207FBD57F
:1006D000FA6822F00202FA6094F85D20012A0AD139
:1006E0000270DA78022A18BF032A03D15A7D82F0F9
:1006F00001025A7584E6032A18BF042A3FF476AE35
:10070000052A3FF474AE062A18BF082AF2D1DA6926
:10071000521CDA61042A23BF0022DA610423022377
:1007200067E629684FF00070486100F055F8C00690
:100730003BD52868816921F0100181612E68306AFB
:1007400000F00F04C0F30A19C0F34340022827D178
:10075000B9F1000F24D0282010FB04F02F18796C79
:10076000F1B14A46304600F0B2F8786C48447864FB
:1007700006EB4416F96C894406F5A066C7F84C9060
:1007800030690B4908420BD0306820F0804040F0BF
:100790000040306097F8500080F0010087F850006A
:1007A0002868816941F010018161BDE8F78F000080
:1007B0000000F81F0420B860F96841F00201F960F8
:1007C0007047F86840F00200F8607047F86840F041
:1007D0000200F86049467047286800F08AB8F86857
:1007E00040F00200F860286800F0F5B90020D861F8
:1007F000FA6842F00202FA60286800F0ECB910B51D
:1008000000F00FF801D1022010BD00F00FF800F049
:1008100029F82068012100F0A8F8002084F8B80227
:1008200010BD044694F8B80201287047012084F8EE
:10083000B8022068704710B5FFF7F3FF01D102201E
:1008400010BDFFF7F3FF00F01FFAE6E7006800F0C5
:1008500071B828225143084490F85C007047006842
:1008600000F0A3B8816841F00101FFE7816000203A
:100870007047890141F020010161DFF8FC13491E36
:1008800004D002699306FAD4002070470320704711
:1008900010210161DFF8E013491E04D00269D3067C
:1008A000FAD40020704703207047B8B5059C64B99E
:1008B000DB1C07E000EB023751F8045B07F58057BB
:1008C000641C3D60B4EB930FF4D30020B2BD10B5AF
:1008D000D21C002305E000F580545B1C246841F81D
:1008E000044BB3EB920FF6D3084610BD0160002015
:1008F000704701464869896908407047406900F0BF
:100900000100704710B500F5806001F00304026833
:10091000920892000260036823430129036008BF24
:100920004BF6803103D0022902D141F2707141604F
:10093000002010BD1CB5002100F5886400912268DC
:100940000092009820F02E0000906420009941F45D
:100950008071216000F044FA009820F480702060DB
:100960000A2000F03DFA002016BD18B5002300F55E
:100970008860009304680094009A22F02E0200928E
:10098000009AD30407D4012905D1009941F480517C
:100990000160009807E0009AD30404D519B90099C2
:1009A00021F480510160002012BD81B0002100F5CA
:1009B00088600091026800920098C0F3414001B045
:1009C000704700002DE9F84100EB4116089D06F53F
:1009D000A0664FF0FF37032D4FF00008B76022D814
:1009E000DFE805F00217020E40F29D44F4601406A1
:1009F0000BD4C46BE40518D5F46844F0600410E02F
:100A000040F29D64F46014060FD5F46844F48074D9
:100A100007E040F22524F460140606D5F46844F497
:100A2000C074F46001E04FF0010800F58067012414
:100A3000D7F818C001F00F0104FA01F141EA0C01E6
:100A4000B961816941F000718161100607984CBF5E
:100A50004FF40041002102280CBF4FF4003C4FF03E
:100A6000000C9B05D202099803F0FE5302F4F042F9
:100A7000AF041A4307F440273A43C0F30A00024385
:100A80000A434CEA0202032D326003D1306840F081
:100A9000005030604046BDE8F2810000F8B54C7867
:100AA000C36B00EB4416DF0506F5A06612D50B7983
:100AB00083B9130006D14B79012B0BD1214600F0ED
:100AC000CEF881E0012A05D1F36823F06003F360DA
:100AD00000244C710B696BB10C89E3185B1EB3FBEE
:100AE000F4F7BFB2B7F5807F05DD24024FF48077BD
:100AF0000C6100E00127CB7813B10B897B430B61BC
:100B000000F580650B695D4CC3F3120304EAC7442A
:100B10008F7A7F07234307F0C0473B4333611300BD
:100B20001CBFCB687361AB68DC07346824F00054E9
:100B300034604CBF00234FF000533768504C3B43A8
:100B4000336033682360236823F080432360CB78CD
:100B500023B1276847F40047276003E0236823F4A4
:100B600000432360002A276847F000472760236876
:100B7000336004BFCA78002A26D10A6922B3CB7930
:100B8000032B19D8DFE803F0020D020DC46AD21C52
:100B9000A4B29203B4EB124F0ED2826942F020024B
:100BA00009E02B69D21C9BB29203B3EB124F03D224
:100BB000826942F080628261002200924A780B6969
:100BC000C9689BB2FFF771FE0020F2BD00F580609E
:100BD000406980B27047024610B502EB411303F53D
:100BE000A0631868C0F38141002918BF022940F2B0
:100BF000E93015D1196841F080411960D26A12F4C8
:100C00007F0F08D100F01EF8401E02D0196800299D
:100C1000FAD4002010BD186840F000401860F8E7D2
:100C2000196841F08041196002F58064216911F46E
:100C30007F0FF0D100F006F8401EEAD019680029B5
:100C4000FAD4E6E7196821F0004119601A6842F009
:100C500000421A60196821F400411960704700EBE6
:100C6000411000F5A06007490161016821F0804151
:100C700041F000413AE60000410D03000000F81F7A
:100C8000E00700200000088070B504461021A2682B
:100C900052085200A2600025FFF7EBFD2046FFF747
:100CA000F7FD002000F02AF80A6822F0802242F0C6
:100CB000804210280A60F5D3002004EB401101F5B2
:100CC000A0610A6822F4004242F040420A6040F209
:100CD000E9326D1C954202D20B68002BF9D4401CFE
:100CE0001028EAD304F580664FF0FF307061606130
:100CF000A06840F00100A060002070BD04EB40112E
:100D000001F5A061401C7047D0F8C00200F0C6B9E0
:100D1000D0F8C00200F0D6B9D0F8C00200F0E6B9B1
:100D20007047D0F8C00200F0C7B9D0F8C00200F098
:100D3000C5B980B5D0F8C403FFF761FDBDE8024036
:100D400045E080B5D0F8C403FFF775FDF6E710B5B0
:100D5000D0F8C403FFF783FD012418B1022808BFAF
:100D6000022400E00024204610BD80B5D0F8C40362
:100D7000FFF76CFDE2E73EB5BDF820409DF81C5042
:100D8000029401959DF818400094D0F8C403FFF731
:100D9000FBF9BDE83E401AE038B584B09DF82C4020
:100DA000BDF8285003940295099C9DF820500194A9
:100DB0000095D0F8C403FFF71BFA05B0BDE830403A
:100DC00005E0D0F8C403FFF744BD00F009B80146C0
:100DD000002021B1022901D1012070470220704773
:100DE00038B5044600F0BCF914F1010F054602D0F5
:100DF00004480178641800F0B3F9401BA042FAD30C
:100E000031BD00BF0000002010B504463C2104F5B0
:100E1000607000F0ABF94FF4007104F58E7000F0D3
:100E2000A5F90020207001226070A270C4F8BC03F4
:100E300022764020A071002104F5477061760022DF
:100E4000012102704170002010BD00007FB50446F2
:100E5000022004F547758DF80000E97831B9207853
:100E600000281FBF217803290320207021780B2937
:100E700004F55D7618D8DFE811F00C0018001D00AD
:100E800000010A013A00EA00B300BB00C300D00031
:100E9000FA00A878002807D001212170C820FFF7A8
:100EA00094FF2046FFF761FFF1E0E8780128FBD1CD
:100EB0000221D7E06420FFF788FF2046FFF747FFB5
:100EC0006870002105202070204600F060F96071F4
:100ED0008021204600F05BF90146A07921710022B3
:100EE0000290019280226B7800932B7868E0607802
:100EF000072804F58E72D7D8DFE800F05047322A71
:100F0000221A1204A97D19B100F0C4F80028CBD12F
:100F10000020E97D2871012914BF07200820A4E0E2
:100F2000697D19B100F0B6F8002833D1072033E00D
:100F3000297D19B100F0AEF800282BD106202BE056
:100F4000698B204600F085F9002823D1052023E095
:100F50000921204600F07DF900281BD104201BE068
:100F60000121204600F039FA002813D10220FFF7B2
:100F70002CFF012028700321A079617002900021CC
:100F8000019101236A78009218E01221204600F0B6
:100F900025F900287BD10220607078E008212046E6
:100FA00000F01CF9002872D1687BA07101216170EA
:100FB000029000200190697800912B78217980229D
:100FC000204600F0D6F8A079029000210191204639
:100FD0006A7800922B786179002200F0CAF856E016
:100FE000726D002A53D001212046904708203CE032
:100FF000697F204600F0FCF9002848D1092034E040
:10100000E97F880607D50121204600F0FEF9002877
:101010003DD10A2029E00A2124E0B068002836D01A
:1010200000217160316894F84323087990420CD113
:10103000716051B1896820468847A8B906202070A0
:101040000321726D2046904721E00D210AE071686E
:1010500051B10969204688478DF800009DF80000CD
:10106000A8B90B21217012E00D2020700FE07168EB
:1010700069B149692046884709E02046FFF7C4FE68
:10108000716821B1C968204688470020706000203F
:1010900004B070BDFF23204600F05EB900F55E711C
:1010A0004A6C521C4A6403780B2B04D1096800294E
:1010B0001CBF896908477047012100E0002180F8C2
:1010C0001F13704780B5017800F21E3239B9012331
:1010D0001370D0F8C8233AB10421904704E0527845
:1010E000012A04BF02210170002002BD10B5044690
:1010F000FFF727FE00F013F8617900F011F80020E7
:1011000084F81E03D4F8C82312B105212046904765
:101110002046FFF70EFE03202070002010BD21792D
:10112000204600F04FB830B4002513E050F8042BEF
:10113000D30744BFA9F101039A18091F042942F8F3
:10114000045BFAD213468C0744BF15809B1CC90769
:1011500048BF1D7050F8041B0029E7D130BC704710
:1011600001484068704700BF00000020002200F0E6
:101170002FBA3EB5BDF820409DF81C500294019551
:101180009DF818400094FFF7F6FD00203EBD70B5B5
:1011900002460023D8B202EB8004D4F880532E0418
:1011A00006D55B1CD8B20B28F4D34FF6FF7007E0CE
:1011B0004FF6FF7290421CBF41F40041C4F8801307
:1011C000C0B270BD0B2907D200EB8100D0F88013AC
:1011D000C1F30E01C0F88013002070477CB50646AD
:1011E0000C4606F58E7500942B464FF48072002154
:1011F00000F0D8F801002BD106F222312A780A70CB
:10120000092C6B784B70AA78EB7842EA03224A806B
:101210002A790A716B794B71AA798A71EB79CB7152
:1012200016D32A7A6B7A42EA03220A81EB7AAA7AE7
:1012300042EA03224A816B7B2A7B42EA03228A81AB
:10124000AA7B8A73EB7BCB732A7C0A746B7C4B740E
:1012500076BD2DE9FC4780460C46009408F11C033E
:101260004FF40072002100F09DF85FEA000970D190
:1012700008F54D7798F81C103970002698F81D2055
:101280007A700A2C98F81E1098F81F2041EA022163
:10129000798008F11C0098F82010397108F12101BB
:1012A0000A787A714B78BB718A78FA71C978397289
:1012B0004FD30921ADF80010BDF800107A88914293
:1012C00047D2694600F0ACF8417804293FD11A2290
:1012D000724308EB020A0AF23E34017821700025BD
:1012E000427862708178A170C278E27001792171D0
:1012F000427962718179A171C279E271017A2172B8
:101300001AE0694600F08CF84178052914D1E9B259
:101310000AEBC10202F5527103780B706D1C427822
:101320004A7083788B70C278CA700379427943EA35
:1013300002238B8082798A71E9B2227991423EBF81
:10134000BDF800107A889142DBD3761CF6B2022EEB
:10135000B2D34846BDE8F687F8B504461546009373
:101360001E4604F58E7741F440723B46002100F0A2
:1013700019F8010004BF7978032912D139788B1E3E
:101380009E4224BF8E1EB6B2002106E06218891C60
:1013900092F81E2105F8012B89B2B142F6DB00213B
:1013A0002970F2BD38B585781446049A012D10D104
:1013B00041F08001017444820621417404F47F44A9
:1013C000B4F5407F07BF40F2094181820024848246
:1013D000C2821946BDE838402AE08278012A06D147
:1013E000002305220374427441828382C38209E090
:1013F0008278012A06D100230922037442744182B3
:101400008382C3820022002112E08278012A06D161
:10141000002303220374427441828382C382F1E772
:101420000A880378D3180B800178084470470000BD
:101430007CB505460124A878012802D0022806D0F0
:10144000C0E0A960AA8102212876A970BAE0287EAE
:10145000401E0A2805F56F7612D8DFE800F09E825C
:10146000786B604B413126190600687E401C687617
:10147000C0B2032805D22846FFF763FC2C76AC7077
:1014800093E0F2680621284690470020687644E001
:1014900000F09AF8012802D100240D2084E00228EF
:1014A00008BF0920FAD0042874E0009400226B7968
:1014B0000021284600F0B0F83068E8810A2164E095
:1014C000297900F082F8012803D10D202876002424
:1014D0006BE0042808BF0B2066D0052865D132E0F8
:1014E0002B7900220021284600F09CF83068E88122
:1014F00008214AE000F068F8012808BF072053D00F
:10150000052802D10C2028761DE0022808BF0520FE
:101510004AD0042849D10B202876022445E00094C3
:101520006B79AA89A968284600F076F83068E881C6
:1015300006212AE0297900F048F8012808BF09208F
:1015400032D0052801D103242FE0042822E031689D
:101550002B79AA89E9812846A96800F063F804205C
:1015600022E000F031F8012811D1297CE88A01F04D
:10157000800128B1802908BF032015D0052104E08F
:10158000802908BF09200FD0072129760DE0042803
:1015900018BF022809D10B2006E06A7905F1100175
:1015A000284600F02EF802202876002C18BF032CC5
:1015B00004D101200021A870297603E0022C04BF89
:1015C0000120A870204676BD69792846FFF7F9BB4F
:1015D00000B500BF130096469446103928BFA0E816
:1015E0000C50FAD85FEA417C28BF0CC048BF40F8D5
:1015F000042BC90728BF20F8022B48BF00F8012B95
:1016000000BD7FB5144600220191039208250026F3
:101610000295009600231EE038B584B000F00EF865
:10162000002304E07FB500F01CF8002312E0002244
:101630002146FFF7B1FB002005B030BD1C46089DD8
:1016400090F81D3303B10025039502920191012505
:101650000095704701222146FFF79EFB002004B051
:1016600070BD029201911C4600250126039500964B
:10167000704730B40EE00268436802440830DC076B
:1016800044BFA9F10104E31852F8045B43F8045B7A
:10169000091FF9D150F8041B0029ECD130BC704768
:1016A0002DE9F84386B000F016F9142200216846AF
:1016B00000F087F90020B54CB54DB64FDFF8D88261
:1016C000DFF8D89205904FF21006216841F0100122
:1016D00021600021206800F0100000F0F7F842F0CF
:1016E00004022260206800F0040000F0EFF842F0ED
:1016F00080022260206800F0800000F0E7F842F0ED
:1017000001022260206800F0010000F0DFF842F0E2
:1017100002022260206800F0020005900598059101
:101720000821226842F0080222600022206800F0AE
:10173000080005900598284600F025FA01220121AD
:10174000384600F020FA00223146404600F01BFAED
:101750000821009101220021029103910192694622
:10176000284600F039F90121009101913846002105
:101770000291039100F0A7F8002202920392082040
:10178000022100900191052204926946384600F03A
:1017900023F9012000900021814F82480197029196
:1017A00000F091F804200021009001910291484638
:1017B00000F089F84FF4806002210090019100222E
:1017C00002920392694605220492484600F004F909
:1017D0000120019000220292039200966946404641
:1017E00000F0FAF82020002100900191029140467B
:1017F00000F069F812210191012202924FF4107059
:10180000002100900391042204926946484600F0AA
:10181000E3F802210091019700210291284600F08F
:1018200052F8002000900022216841F480012160DC
:10183000002120685C4C00F4800000904FF400759B
:1018400000983B2000F0C7F93B2000F0E1F9574831
:10185000A0654FF4FA51002020666066A0662067FC
:101860006067A067E166E56504F1580000F0FAF9E9
:101870004FF4827161601821E16100224C482060C0
:101880000A21A260E2602261626122626262A26257
:10189000E162A561204600F021FB04F1A00045496A
:1018A00001604FF4E13200230C2142608360C36089
:1018B000036141618361C36100F052FB00F0FEFBF4
:1018C00007B0BDE8F083694600F086B8059005983A
:1018D00005912268704780B596B0302200210AA891
:1018E00000F06FF81422002105A800F06AF8102219
:1018F000002101A800F065F8002000904FF480332B
:101900002D48016841F0805101600021006800F01D
:1019100080500090009829480091026842F480426B
:1019200002600122006800F4804000900AA800993B
:101930000A9202214FF480021091119208214FF473
:10194000A87212911392022107220B9314911592FF
:1019500000F0BAFB02210691002207920F204FF4FB
:10196000A051059008914FF480520992052105A8D5
:1019700000F032FD01200190C02102220291039269
:1019800001A800F0FFFD17B000BD00003038024094
:101990000010024000080240000C02400004024017
:1019A0000000121000000240A0060020003C004091
:1019B00000300140001401404038024000700040F7
:1019C000704710B5044610460A460146204600F00E
:1019D00093FE204610BD00002DE9F84F0D4600266D
:1019E0006B496C4A0F23044601202F68B04000EA7F
:1019F0000708804540F0C1804FEA460C032707FAEC
:101A00000CF76FEA070E6F68012F18BF022F03D083
:101A1000112F18BF122F12D1A768D5F80C900EEA1B
:101A2000070709FA0CF949EA0707A760676827EA78
:101A300000006F68C7F30017B74038436060E06884
:101A4000AF680EEA000007FA0CF73843E060B00018
:101A50006F68022F18BF122F12D1F70804EB870707
:101A600000F01C09D7F820A003FA09FB2AEA0B0AA8
:101A7000D5F810B00BFA09F949EA0A09C7F820901D
:101A800027680EEA070E2F7907F0030707FA0CF70D
:101A900047EA0E0727606F68FF006ED500270097A2
:101AA0004FEA960C176847F48047176000F00C0067
:101AB000176807F48047009703FA00FE009F364F2F
:101AC00057F82C7027EA0E0E344FBC4208BF00278F
:101AD00022D0334FBC4208BF01271DD0314FBC423A
:101AE00008BF022718D0304FBC4208BF032713D0CD
:101AF0002E4FBC4208BF04270ED02D4FBC4208BF5A
:101B0000052709D02B4FBC4208BF062704D02A4F17
:101B1000BC420CBF0727082707FA00F01E4F40EA17
:101B20000E0047F82C006FEA08000F6800EA070C67
:101B30006F68FF0348BF48EA0C0CC1F800C04F684B
:101B400000EA070C6F68BF0348BF48EA0C0CC1F8F5
:101B500004C08F6800EA070C6F68FF0248BF48EABC
:101B60000C0CC1F808C0CF6800EA070C6868800256
:101B700048BF48EA0C0CC1F80CC0761C0F2E7FF64B
:101B800033AFBDE8F18F02B90904816170470000ED
:101B9000003C014044380240083801400000024047
:101BA0000004024000080240000C02400010024005
:101BB0000014024000180240001C0240090102000B
:101BC00002D4234881547047224B02F00F021A447A
:101BD00002F8041C704770B51F4B1C68C4F3022345
:101BE0000124C3F10705052D2EBF0F2504FA05F5C5
:101BF0006D1E1E1D072E34BF0023DB1E2940994099
:101C000004FA03F3BDE870405B1E1A401143D5E7A8
:101C1000010007D4012200F01F01104B8A40400947
:101C200043F82020704710B5401EB0F1807F01D3EB
:101C3000012010BD0A4C60600F214FF0FF30FFF70C
:101C4000BDFF0021A16007202060002010BD000022
:101C500000E400E018ED00E00CED00E000E100E041
:101C600010E000E0F8B5040053D004F140056878B6
:101C700038B9002129700FF25D106063204600F032
:101C80006FFD02206870DFF838612068C16931405B
:101C9000C1610220226810626069022830D0E068C9
:101CA0000028A0680CBF10272027212838BF7F00FC
:101CB000012000F0EBFC014620690A22B0F5007F0C
:101CC0000ED16369E06820B1BF00B1FBF7F14A4370
:101CD00003E0FF00B1FBF7F04243B2FBF3F005E095
:101CE000B1FBF7F042436069B2FBF0F0401D0A21FE
:101CF000B0FBF1F101F00100091A4908000201E00E
:101D0000022100208A1EFE2A05D3686840F01000D8
:101D100068600120F2BD014320692268014311621D
:101D20002268D3696168A06833400B43E1680343CC
:101D3000A0690B43034343F40063D361206A012885
:101D400038D1DFF88010DFF88070DFF88020DFF80E
:101D5000803061632068B8420CBF184610460168A5
:101D60000E4006602668BE420CBF181D101D0221E1
:101D700001602668BE420CBF18461046D0F800C06D
:101D80006068A168B0F5007F16BF00284FF4807E20
:101D90004FF0000EE06841EA0E010843A1690843D4
:101DA00040F4006080B2BE4240EA0C0008BF1A4610
:101DB00080B210600020686001216970F2BD0000EF
:101DC00040F0FFFF8D2B0008003800401C40004011
:101DD0001C3400401CB5044620688168009194F8CA
:101DE0004120042A32D10099CA0712D541684A0617
:101DF0000FD5C06800F069F8608E50B9206841685E
:101E000021F060014160012284F84120204600F069
:101E100081FD0098410619D5206841688A0615D5CC
:101E2000416821F060014160002001902168CA688A
:101E30000192896801910121019884F84110606C38
:101E400040F002006064204600F065FD94F8410017
:101E5000032839D10098810719D5206841680A06FE
:101E600015D5616A0A88C260606A811C6162608DF2
:101E7000411E6185608D50B92068416821F0A00144
:101E80004160012084F84100204600F045FD0098A3
:101E9000010719D5206841688A0615D5416821F0E7
:101EA000A001416000200090216888680090012016
:101EB000009984F841002046616C41F0040161649E
:101EC000BDE8164000F027BD13BDE16A0880E06A56
:101ED000821CE262608E411E6186704738B5040044
:101EE00001D1012032BD0020A06204F150056878C4
:101EF00020B900212970204600F06BFC0220687098
:101F000000F027F86268A168E06823680A43216945
:101F1000024360690A43A169024301F40071E06968
:101F20000A43216A0243A06A0A4302431A60A16974
:101F3000606A2268090C01F00401014351602068C5
:101F4000C16921F40061C1610020686001216970EC
:101F500032BD2068016821F0400101607047000037
:101F600038B5040001D1012032BD00F021F808B9D4
:101F700000F022F800F012F800F023F8FFE74161CA
:101F800000F001F832BD2068C16841F40051C16021
:101F90000020686020216970A97070472420687053
:101FA0002068C16821F40051C160204600F013B8D8
:101FB00004F138056878704700212970204600F048
:101FC00061BC2068016921F4904101612068416988
:101FD00021F02A017047D0B506466427326811699E
:101FE000F06821F44051014311611924D3682D4850
:101FF000B168034030690B4371690343F0690B43D7
:102000000343D3605169B06921F4407101435161C8
:10201000F36925482549B3F5004F1FD18A4218BFFF
:10202000824202D100F066FA01E000F05BFA02465B
:10203000A4FB02017268D30F520000F06FFC00F0A5
:1020400037F8FF0032376420B7FBF0F0420002F4AB
:10205000F87202EB011200F007001DE08A4218BF7F
:10206000824202D100F046FA01E000F03BFA02465B
:10207000A4FB02017268930F920000F04FFC00F085
:1020800017F83F0132376420B7FBF0F000F0F002A0
:1020900002EB011200F00F00316880188860D0BD9B
:1020A00000000000F369FFFF001401400010014030
:1020B0006421B0FBF1F107FB110770470148FEF7FF
:1020C000C5BE0000100000202DE9F843040016D022
:1020D0002078DFF8F462C10713D5B06800F00C0077
:1020E000042807D0B06800F00C0008283DD17068C3
:1020F00041023AD53068810303D56068002800F0BA
:102100005E812078B14F810719D5B06810F00C0FAF
:1021100007D0B06800F00C0008285BD1706841025D
:1021200058D43068810703D5E068012840F0478122
:102130003168206921F0F80141EAC001316021785D
:10214000080779D56069A249002868D001220A6091
:10215000FFF706F80546706F81076DD4FFF700F8AA
:10216000401B0228F7D903202CE16068B0F5803FBE
:1021700004D1306840F48030306011E0B0F5A02F19
:10218000306806D140F480203060316841F48031FD
:1021900005E020F480303060316821F48021316026
:1021A000606858B1FEF7DCFF054630688103A8D4AB
:1021B000FEF7D6FF401B6528F7D3D4E7FEF7D0FF24
:1021C0000546306881039CD5FEF7CAFF401B652891
:1021D000F7D3C8E7E068A8B101213960FEF7C0FF76
:1021E00005463068810705D4FEF7BAFF401B022878
:1021F000F7D9B8E73068216920F0F80040EAC1005B
:1022000030609CE73860FEF7ABFF05463168880711
:1022100095D5FEF7A5FF401B0228F7D9A3E7086074
:10222000FEF79EFF0546706F810705D5FEF798FF04
:10223000401B0228F7D996E7207841075FD5306C1C
:102240000025C1000AD400950125316C41F0805170
:102250003164306C00F0805000900098DFF8748199
:10226000D8F80000C10513D4D8F8000040F48070FD
:10227000C8F80000FEF774FF8146D8F80000C105D9
:1022800006D4FEF76DFFA0EB09000228F5D96AE736
:10229000A068012805D00528306F06D140F0040061
:1022A0003067306F40F0010005E0400840003067C3
:1022B000306F20F00400306741F28938A06860B1C7
:1022C000FEF74EFF8146306F810713D4FEF748FFBB
:1022D000A0EB09004045F6D345E7FEF741FF8146F4
:1022E000306F810706D5FEF73BFFA0EB09004045A4
:1022F000F6D338E71DB1306C20F080503064A0690F
:1023000000285ED0B16801F00C0108293AD00228FB
:102310002AD100203866FEF723FF05463068810188
:1023200005D5FEF71DFF401B0228F7D91BE7E06922
:10233000216A626A0843A16A490840EA8210491E7C
:1023400040EA0140E16A40EA0160706001203866BD
:10235000FEF706FF04463068810132D4FEF700FF25
:10236000001B0228F7D9FEE600203866FEF7F8FECB
:1023700004463068810124D5FEF7F2FE001B0228D6
:10238000F7D9F0E601281AD0B068E26900F48001BC
:10239000914202BF00F03F01226A91420FD147F6FD
:1023A000C071626A0140914202BF00F44031A26AEA
:1023B000914202BF00F07060E16A884201D00120C2
:1023C00000E00020BDE8F2830038024000004742F0
:1023D000800E4742007000402DE9F04104000F4696
:1023E00054D0494E306800F00F00B84202D200F0DD
:1023F00073F84BD12068454D810712D5400703D5AE
:10240000A96841F4E051A9602078010703D5A868C4
:1024100040F46040A860A968A06821F0F001014381
:10242000A9602178C80729D56068012802D12968E8
:102430008A0305E0022818BF032803D129688A010E
:1024400003D423E029688A0720D5A968890840EACF
:102450008100A860FEF784FE8046A868616800F0ED
:102460000C00B0EB810F09D0FEF77AFEA0EB08005C
:1024700041F289318842F0D303202BE0306800F02C
:102480000F00874204D200F027F801D0012021E09C
:102490002078410705D5AA68E06822F4E05202439B
:1024A000AA602178080706D5A968206921F460414F
:1024B00041EAC001A96000F035F8AA681449154B3B
:1024C000C2F30312895CC84018601348006800F02A
:1024D000A9FA0020BDE8F0813770316801F00F01E2
:1024E000B94270470B480D4A006813680C49C3F3A2
:1024F000822206E00748094A006813680849C3F3C6
:102500004232895CC8407047003C024000380240BB
:10251000A82E00080C000020080000200838024007
:10252000D42F000830B5144C606800F00C0004286B
:1025300002D0082802D01DE0104830BD2268206873
:102540000023410202F03F0204D525680B49C5F380
:10255000881003E020680A49C0F38810A1FB00013D
:1025600000F0DCF92168C1F30141491C4900B0FBCE
:10257000F1F030BD024830BD0438024000127A004C
:102580000024F400F8B50546524C287810F0050FE9
:1025900020D0514E00203060FEF7E2FD0746216852
:1025A000080106D5FEF7DCFDC01B0228F7D9032081
:1025B000F2BDA968686800F086F83260FEF7D0FDC9
:1025C00006462068010105D4FEF7CAFD801B0228DB
:1025D000F7D9ECE72878810756D500200090216CC8
:1025E0003E4F41F080512164206C00F080500090FB
:1025F0000098396841F480713960FEF7B1FD0646F4
:102600003868C10505D4FEF7ABFD801B0228F7D959
:10261000CDE7206F10F440701EBFE96801F44071EF
:10262000884219D0206F2E4901220A6000230B60D6
:1026300020F440702067206FC1070DD5FEF790FD94
:102640000646206F810707D4FEF78AFD801B41F202
:1026500089318842F5D3AAE7E96801F44070B0F502
:10266000407F07D1A2681F4822F4F81201401143AD
:10267000A16003E0A06820F4F810A060206FE96872
:10268000C1F30B01084320670020F2BD0146002082
:10269000012917D114494A68120213D4086809683D
:1026A00042024CBF1148124801F03F01114AB0FBF1
:1026B000F1F11068C0F3881041431068C0F3027054
:1026C000B1FBF0F07047090741EA80110948016049
:1026D0000122704700380240680047420070004005
:1026E000400E4742FFFCFF0F0438024000127A0000
:1026F0000024F4008438024062F30F2262F31F4288
:10270000401810F0030308D0C91A1FD3DB0748BFD5
:1027100000F8012D28BF20F8022D130030B4144614
:102720001546103928BF20E93C00FAD8490728BFD0
:1027300020E90C0048BF40F8042D890028BF20F88C
:10274000022D48BF00F8012D30BC7047C91818BFD2
:1027500000F8012DCB0728BF00F8012D70470000BD
:1027600010B586B000F088F82168624881422AD10D
:10277000002261480092016941F400410161016950
:1027800001F4004100F06DF8036843F001030360B9
:10279000016801F0010100F064F8102100F09EF8DA
:1027A00000F063F8062100F010F800220392049272
:1027B0004FF4A0500221019002910622059201A936
:1027C0004E48FFF709F906B010BD059101A9FFF7C2
:1027D00003B938B586B000F04FF821684948814206
:1027E0003DD100224448484D0092416941F4805156
:1027F0004161416901F4805100F033F8E021036840
:1028000043F0010303600222006800F00100009021
:10281000009800F02AF80521FFF7D7FF3B48286011
:102820004FF0C061696000204022E8604FF4806191
:102830006861A861E86128626862AA602961284627
:1028400000F010F908B1FFF7BBF8A564AC630022F3
:1028500000212320FFF7BFF92320FFF7D9F907B0A4
:1028600030BD009100990092704725480191029275
:10287000002103910491704704461422002101A80D
:10288000FFF79FB810B586B0FFF7F6FF2168204824
:10289000814221D1002218480092416941F0200173
:1028A0004161416901F02001FFF7DBFFC02100F029
:1028B00015F8124801910292002103910322082188
:1028C00005910492FFF782FF002200214720FFF7C5
:1028D00082F94720FFF79CF906B010BD036843F06A
:1028E000040303600222006800F0040000900098D6
:1028F00070470000003C00403038024000080240B1
:10290000000002400030014080070020586402406F
:10291000001401407047704770470000D3BBD9B125
:10292000B2F5803F5BD2022A1ED98C46B1FBF2F190
:1029300002FB11C31B0443EA1043B3FBF2FC02FB8E
:102940001C3380B240EA0343B3FBF2F002FB1032C7
:1029500040EA0C4000237047022A05D98446B0FBA8
:10296000F2F002FB10C270474AB105D100F001023B
:1029700049085FEA3000704700220023704700F0EA
:1029800003B90B000200002100207047F7D300229A
:1029900000237047904271EB030CF2D370B5B1FA8B
:1029A00081F4B3FA83F52C1BA340C4F1200532FA5D
:1029B00005F63343A2405FF00046E64002E05B08C4
:1029C0005FEA3202841A71EB030524BF20462946D0
:1029D0007641F4D302000B003000002170BD70B5C9
:1029E000B1FA81F4B2FA82F5C4F120046419B4F1A9
:1029F0002006DAD3B2405FF00044F440002502E044
:102A000052085FEA3303C61A71EB020E24BF304648
:102A1000714664416D41F3D302000B002000290090
:102A200070BD000038B50D4D0D4B2A7804464FF4AB
:102A30007A711868B1FBF2F2B0FBF2F0FFF7F3F82D
:102A400050B9102C08D2002221464FF0FF30FFF77A
:102A5000C2F8AC60002032BD012032BD0000002071
:102A60000C00002070B50446FEF77AFB06460CB950
:102A7000012070BD04F13405002028700221697026
:102A80002068026852085200026022681068C1077C
:102A90000AD5FEF765FB801B0628F6D320202862A6
:102AA00003216970032070BD1368DFF8A800616816
:102AB0000340A0680B43E168034320690B4361694D
:102AC0000343A0690B43E1690343206A0B43616A36
:102AD0000343042903D1E16A206B01430B431360D4
:102AE00023685A69606AD208042840EAC2020AD1FF
:102AF000A66AE16A324331B1A06988B9002E18BFD5
:102B0000022E1FD016D35A61204600F025F8A96A7C
:102B10003F228A408260002028620121697070BDD6
:102B2000B0F5005F0AD1032EEDD8DFE806F00D0BFB
:102B30000D03E8E7B1F1C07FE5D105E0022E03D92E
:102B4000F61EE0D1C801DED540212962012068705F
:102B500070BD00003F8010F030B5016808A401F09E
:102B6000FF02103A1823B2FBF3F2890A8902A55C2E
:102B7000C565042A28BF091D8165806D30BD000030
:102B8000000610160006101670470000F8B504463F
:102B900084B02168DFF82C728868DFF82C52DFF8E7
:102BA0002C620390B9420CBF301D281DB942006849
:102BB00002900CBF304628464A6801920368009391
:102BC0006068B0F5007F18BF002870D103988207B5
:102BD00012D5019802060FD5606A821C62620088D5
:102BE000C860618D4A1E6285608D28B900F0D0F8FA
:102BF000608E08B900F0DFF80298C1071DD5009873
:102C000041061AD5E06A811CE1622268BA420CBF13
:102C100006F1080105F10801096800F0BFF860B984
:102C20002168B9420CBF30462846026822F0600293
:102C30000260608D08B900F0BEF8029841061FD509
:102C4000009881061CD52068B8420CBF3046284643
:102C5000016821F06001016000F09AF80020009006
:102C60002168CA680092896800910121009884F85F
:102C70004110606C40F0020060642046FFF74BFE9C
:102C8000039801077CD50198810679D500F080F87A
:102C90002068B84208BF35460020296821F060014D
:102CA0002960009021688868009000995EE0029891
:102CB00082071FD5009802061CD5B942616A0CBF75
:102CC00006F1080005F108008A1C626209880160AB
:102CD000608D421E6285608D60B92168B9420CBF6B
:102CE00030462846026822F0A0020260608E08B9D1
:102CF00000F061F80398C10710D5019841060DD581
:102D0000E06A811CE1622268D16800F047F828B9C6
:102D100000F038F8608D08B900F04DF803984106CE
:102D200014D50198810611D500F02CF82068B8421E
:102D30000CBF30462846016821F0A001016000F078
:102D400033F841F002016164FFF7E5FD02980107E5
:102D500016D50098810613D52068B84208BF3546BD
:102D6000296821F0A001296000F00CF800F01CF89F
:102D700041F00401616405B0BDE8F040FFF7CBBD50
:102D800005B0F0BD2068416821F0600141607047E6
:102D90002068416821F0A001416070470180608E89
:102DA000421E6286608E7047012084F841002046F2
:102DB000616C70470000012184F84110204600F04A
:102DC00007B80000003800400440004004340040D0
:102DD0007047000010B5FEF763FC2848284C0168D6
:102DE00041F020010160204600F00AF8204600F082
:102DF0001FF8F8E7002100E0491C8142FCDB704726
:102E000038B5204D296841F4804129600446FFF718
:102E1000F1FF296841F4004100F026F8286840F4E9
:102E20008050286000F021F8286840F4005016E037
:102E300038B5144D296841F0804129600446FFF7F8
:102E4000D9FF296841F0004100F00EF8286840F0F1
:102E50008050286000F009F8286840F00050286091
:102E60002046BDE83240C5E729602046C2E7064853
:102E70000168C9B201607047000000000C140140F5
:102E800040420F00180C0240041401400448054A57
:102E9000016841F4700101604FF0006010607047FC
:102EA00088ED00E008ED00E00000000000000000F8
:102EB00001020304060708097047FEE7FEE7FEE784
:102EC000FEE770477047704700F00AB870477047D8
:102ED0000148FDF7D2B90000DC030020FFF7C7BFAF
:102EE0000248416802788A1842607047000000205A
:102EF00010B5074979441831064C7C44163404E077
:102F00000A68081D114488470146A142F8D110BD46
:102F10002C0000004C0000004EF68851CEF200015B
:102F2000086840F470000860BFF34F8FBFF36F8FE5
:102F30004FF00070E1EE100A70470000EBE1FFFF78
:102F4000D4070000100000200000000027E7FFFF6A
:102F500010000000640000000000002000000000DD
:102F600000F00DF8002801D0FFF7C2FFAFF300809A
:102F70000020AFF30080FFF72DFF00F002F80120E2
:102F8000704700F001B800000746384600F002F82C
:102F9000FBE7000080B5AFF30080024A1100182063
:102FA000ABBEFBE72600020001488047014800470E
:102FB0008D2E0008C92F000801000000000000004D
:102FC000100000000024F400AFF30080FFF7A4FF1E
:102FD000FFF7C6FF0000000001020304FFF7FEBF79
:102FE000FFF7FEBFFFF7FEBFFFF7FEBFFFF7FEBF15
:102FF000FFF7FEBFFFF7FEBFFFF7FEBFFFF7FEBF05
:10300000FFF7FEBFFFF7FEBFFFF7FEBFFFF7FEBFF4
:10301000FFF7FEBFFFF7FEBFFFF7FEBFFFF7FEBFE4
:10302000FFF7FEBFFFF7FEBFFFF7FEBFFFF7FEBFD4
:10303000FFF7FEBFFFF7FEBFFFF7FEBFFFF7FEBFC4
:10304000FFF7FEBFFFF7FEBFFFF7FEBFFFF7FEBFB4
:10305000FFF7FEBFFFF7FEBFFFF7FEBFFFF7FEBFA4
:10306000FFF7FEBFFFF7FEBFFFF7FEBFFFF7FEBF94
:10307000FFF7FEBFFFF7FEBFFFF7FEBFFFF7FEBF84
:10308000FFF7FEBFFFF7FEBFFFF7FEBFFFF7FEBF74
:10309000FFF7FEBFFFF7FEBFFFF7FEBFFFF7FEBF64
:1030A000FFF7FEBFFFF7FEBFFFF7FEBFFFF7FEBF54
:1030B000FFF7FEBFFFF7FEBFFFF7FEBFFFF7FEBF44
:1030C000FFF7FEBFFFF7FEBFFFF7FEBFFFF7FEBF34
:1030D000FFF7FEBFFFF7FEBFFFF7FEBFFFF7FEBF24
:1030E000FFF7FEBFFFF7FEBFFFF7FEBFFFF7FEBF14
:1030F000FFF7FEBFFFF7FEBFFFF7FEBFFFF7FEBF04
:10310000FFF7FEBFFFF7FEBFFFF7FEBFFFF7FEBFF3
:0400000508002FC9F7
:00000001FF
